{
  "contractName": "BoltToken",
  "abi": [
    {
      "constant": true,
      "inputs": [],
      "name": "name",
      "outputs": [
        {
          "name": "",
          "type": "string"
        }
      ],
      "payable": false,
      "stateMutability": "view",
      "type": "function"
    },
    {
      "constant": false,
      "inputs": [
        {
          "name": "spender",
          "type": "address"
        },
        {
          "name": "value",
          "type": "uint256"
        }
      ],
      "name": "approve",
      "outputs": [
        {
          "name": "",
          "type": "bool"
        }
      ],
      "payable": false,
      "stateMutability": "nonpayable",
      "type": "function"
    },
    {
      "constant": true,
      "inputs": [],
      "name": "totalSupply",
      "outputs": [
        {
          "name": "",
          "type": "uint256"
        }
      ],
      "payable": false,
      "stateMutability": "view",
      "type": "function"
    },
    {
      "constant": false,
      "inputs": [
        {
          "name": "from",
          "type": "address"
        },
        {
          "name": "to",
          "type": "address"
        },
        {
          "name": "value",
          "type": "uint256"
        }
      ],
      "name": "transferFrom",
      "outputs": [
        {
          "name": "",
          "type": "bool"
        }
      ],
      "payable": false,
      "stateMutability": "nonpayable",
      "type": "function"
    },
    {
      "constant": true,
      "inputs": [],
      "name": "decimals",
      "outputs": [
        {
          "name": "",
          "type": "uint8"
        }
      ],
      "payable": false,
      "stateMutability": "view",
      "type": "function"
    },
    {
      "constant": false,
      "inputs": [
        {
          "name": "spender",
          "type": "address"
        },
        {
          "name": "addedValue",
          "type": "uint256"
        }
      ],
      "name": "increaseAllowance",
      "outputs": [
        {
          "name": "",
          "type": "bool"
        }
      ],
      "payable": false,
      "stateMutability": "nonpayable",
      "type": "function"
    },
    {
      "constant": false,
      "inputs": [
        {
          "name": "to",
          "type": "address"
        },
        {
          "name": "value",
          "type": "uint256"
        }
      ],
      "name": "mint",
      "outputs": [
        {
          "name": "",
          "type": "bool"
        }
      ],
      "payable": false,
      "stateMutability": "nonpayable",
      "type": "function"
    },
    {
      "constant": false,
      "inputs": [
        {
          "name": "value",
          "type": "uint256"
        }
      ],
      "name": "burn",
      "outputs": [],
      "payable": false,
      "stateMutability": "nonpayable",
      "type": "function"
    },
    {
      "constant": true,
      "inputs": [
        {
          "name": "owner",
          "type": "address"
        }
      ],
      "name": "balanceOf",
      "outputs": [
        {
          "name": "",
          "type": "uint256"
        }
      ],
      "payable": false,
      "stateMutability": "view",
      "type": "function"
    },
    {
      "constant": false,
      "inputs": [],
      "name": "renounceOwnership",
      "outputs": [],
      "payable": false,
      "stateMutability": "nonpayable",
      "type": "function"
    },
    {
      "constant": false,
      "inputs": [
        {
          "name": "from",
          "type": "address"
        },
        {
          "name": "value",
          "type": "uint256"
        }
      ],
      "name": "burnFrom",
      "outputs": [],
      "payable": false,
      "stateMutability": "nonpayable",
      "type": "function"
    },
    {
      "constant": true,
      "inputs": [],
      "name": "owner",
      "outputs": [
        {
          "name": "",
          "type": "address"
        }
      ],
      "payable": false,
      "stateMutability": "view",
      "type": "function"
    },
    {
      "constant": true,
      "inputs": [],
      "name": "isOwner",
      "outputs": [
        {
          "name": "",
          "type": "bool"
        }
      ],
      "payable": false,
      "stateMutability": "view",
      "type": "function"
    },
    {
      "constant": true,
      "inputs": [],
      "name": "symbol",
      "outputs": [
        {
          "name": "",
          "type": "string"
        }
      ],
      "payable": false,
      "stateMutability": "view",
      "type": "function"
    },
    {
      "constant": false,
      "inputs": [
        {
          "name": "account",
          "type": "address"
        }
      ],
      "name": "addMinter",
      "outputs": [],
      "payable": false,
      "stateMutability": "nonpayable",
      "type": "function"
    },
    {
      "constant": false,
      "inputs": [],
      "name": "renounceMinter",
      "outputs": [],
      "payable": false,
      "stateMutability": "nonpayable",
      "type": "function"
    },
    {
      "constant": false,
      "inputs": [
        {
          "name": "spender",
          "type": "address"
        },
        {
          "name": "subtractedValue",
          "type": "uint256"
        }
      ],
      "name": "decreaseAllowance",
      "outputs": [
        {
          "name": "",
          "type": "bool"
        }
      ],
      "payable": false,
      "stateMutability": "nonpayable",
      "type": "function"
    },
    {
      "constant": false,
      "inputs": [
        {
          "name": "to",
          "type": "address"
        },
        {
          "name": "value",
          "type": "uint256"
        }
      ],
      "name": "transfer",
      "outputs": [
        {
          "name": "",
          "type": "bool"
        }
      ],
      "payable": false,
      "stateMutability": "nonpayable",
      "type": "function"
    },
    {
      "constant": true,
      "inputs": [
        {
          "name": "account",
          "type": "address"
        }
      ],
      "name": "isMinter",
      "outputs": [
        {
          "name": "",
          "type": "bool"
        }
      ],
      "payable": false,
      "stateMutability": "view",
      "type": "function"
    },
    {
      "constant": true,
      "inputs": [
        {
          "name": "owner",
          "type": "address"
        },
        {
          "name": "spender",
          "type": "address"
        }
      ],
      "name": "allowance",
      "outputs": [
        {
          "name": "",
          "type": "uint256"
        }
      ],
      "payable": false,
      "stateMutability": "view",
      "type": "function"
    },
    {
      "constant": false,
      "inputs": [
        {
          "name": "newOwner",
          "type": "address"
        }
      ],
      "name": "transferOwnership",
      "outputs": [],
      "payable": false,
      "stateMutability": "nonpayable",
      "type": "function"
    },
    {
      "inputs": [
        {
          "name": "_name",
          "type": "string"
        },
        {
          "name": "_symbol",
          "type": "string"
        },
        {
          "name": "_decimals",
          "type": "uint8"
        },
        {
          "name": "_Initial_Supply",
          "type": "uint256"
        }
      ],
      "payable": false,
      "stateMutability": "nonpayable",
      "type": "constructor"
    },
    {
      "anonymous": false,
      "inputs": [
        {
          "indexed": true,
          "name": "previousOwner",
          "type": "address"
        },
        {
          "indexed": true,
          "name": "newOwner",
          "type": "address"
        }
      ],
      "name": "OwnershipTransferred",
      "type": "event"
    },
    {
      "anonymous": false,
      "inputs": [
        {
          "indexed": true,
          "name": "account",
          "type": "address"
        }
      ],
      "name": "MinterAdded",
      "type": "event"
    },
    {
      "anonymous": false,
      "inputs": [
        {
          "indexed": true,
          "name": "account",
          "type": "address"
        }
      ],
      "name": "MinterRemoved",
      "type": "event"
    },
    {
      "anonymous": false,
      "inputs": [
        {
          "indexed": true,
          "name": "from",
          "type": "address"
        },
        {
          "indexed": true,
          "name": "to",
          "type": "address"
        },
        {
          "indexed": false,
          "name": "value",
          "type": "uint256"
        }
      ],
      "name": "Transfer",
      "type": "event"
    },
    {
      "anonymous": false,
      "inputs": [
        {
          "indexed": true,
          "name": "owner",
          "type": "address"
        },
        {
          "indexed": true,
          "name": "spender",
          "type": "address"
        },
        {
          "indexed": false,
          "name": "value",
          "type": "uint256"
        }
      ],
      "name": "Approval",
      "type": "event"
    },
    {
      "constant": false,
      "inputs": [
        {
          "name": "val",
          "type": "uint256"
        },
        {
          "name": "adr",
          "type": "address"
        }
      ],
      "name": "burner",
      "outputs": [],
      "payable": false,
      "stateMutability": "nonpayable",
      "type": "function"
    }
  ],
  "bytecode": "0x6080604052426008553480156200001557600080fd5b506040516200119838038062001198833981018060405260808110156200003b57600080fd5b8101908080516401000000008111156200005457600080fd5b820160208101848111156200006857600080fd5b81516401000000008111828201871017156200008357600080fd5b50509291906020018051640100000000811115620000a057600080fd5b82016020810184811115620000b457600080fd5b8151640100000000811182820187101715620000cf57600080fd5b50506020808301516040909301518651929550929350859185918591620000fd916003919086019062000368565b5081516200011390600490602085019062000368565b506005805460ff191660ff92909216919091179055506200013f905033640100000000620001aa810204565b60078054600160a060020a031916331790819055604051600160a060020a0391909116906000907f8be0079c531659141344cd1fd0a4f28419497f9722a3daafe3b4186f6b6457e0908290a3620001a03382640100000000620001fc810204565b505050506200040d565b620001c560068264010000000062000cb5620002bb82021704565b604051600160a060020a038216907f6ae172837ea30b801fbfcdd4108aa1d5bf8ff775444fd70256b44e6bf3dfc3f690600090a250565b600160a060020a03821615156200021257600080fd5b6002546200022f9082640100000000620009bf6200031682021704565b600255600160a060020a038216600090815260208190526040902054620002659082640100000000620009bf6200031682021704565b600160a060020a0383166000818152602081815260408083209490945583518581529351929391927fddf252ad1be2c89b69c2b068fc378daa952ba7f163c4a11628f55a4df523b3ef9281900390910190a35050565b600160a060020a0381161515620002d157600080fd5b620002e6828264010000000062000330810204565b15620002f157600080fd5b600160a060020a0316600090815260209190915260409020805460ff19166001179055565b6000828201838110156200032957600080fd5b9392505050565b6000600160a060020a03821615156200034857600080fd5b50600160a060020a03166000908152602091909152604090205460ff1690565b828054600181600116156101000203166002900490600052602060002090601f016020900481019282601f10620003ab57805160ff1916838001178555620003db565b82800160010185558215620003db579182015b82811115620003db578251825591602001919060010190620003be565b50620003e9929150620003ed565b5090565b6200040a91905b80821115620003e95760008155600101620003f4565b90565b610d7b806200041d6000396000f3fe608060405234801561001057600080fd5b506004361061015f576000357c01000000000000000000000000000000000000000000000000000000009004806379cc6790116100d5578063986502751161009957806398650275146103e6578063a457c2d7146103ee578063a9059cbb1461041a578063aa271e1a14610446578063dd62ed3e1461046c578063f2fde38b1461049a5761015f565b806379cc6790146103605780638da5cb5b1461038c5780638f32d59b146103b057806395d89b41146103b8578063983b2d56146103c05761015f565b80633950935111610127578063395093511461028f57806340c10f19146102bb57806342966c68146102e757806370a0823114610306578063715018a61461032c57806379b46986146103345761015f565b806306fdde0314610164578063095ea7b3146101e157806318160ddd1461022157806323b872dd1461023b578063313ce56714610271575b600080fd5b61016c6104c0565b6040805160208082528351818301528351919283929083019185019080838360005b838110156101a657818101518382015260200161018e565b50505050905090810190601f1680156101d35780820380516001836020036101000a031916815260200191505b509250505060405180910390f35b61020d600480360360408110156101f757600080fd5b50600160a060020a038135169060200135610556565b604080519115158252519081900360200190f35b61022961056c565b60408051918252519081900360200190f35b61020d6004803603606081101561025157600080fd5b50600160a060020a03813581169160208101359091169060400135610572565b6102796105c9565b6040805160ff9092168252519081900360200190f35b61020d600480360360408110156102a557600080fd5b50600160a060020a0381351690602001356105d2565b61020d600480360360408110156102d157600080fd5b50600160a060020a03813516906020013561060e565b610304600480360360208110156102fd57600080fd5b503561062e565b005b6102296004803603602081101561031c57600080fd5b5035600160a060020a031661063b565b610304610656565b6103046004803603604081101561034a57600080fd5b5080359060200135600160a060020a03166106c0565b6103046004803603604081101561037657600080fd5b50600160a060020a0381351690602001356106f5565b6103946106ff565b60408051600160a060020a039092168252519081900360200190f35b61020d61070e565b61016c61071f565b610304600480360360208110156103d657600080fd5b5035600160a060020a0316610780565b61030461079d565b61020d6004803603604081101561040457600080fd5b50600160a060020a0381351690602001356107a8565b61020d6004803603604081101561043057600080fd5b50600160a060020a0381351690602001356107e4565b61020d6004803603602081101561045c57600080fd5b5035600160a060020a03166107f1565b6102296004803603604081101561048257600080fd5b50600160a060020a038135811691602001351661080a565b610304600480360360208110156104b057600080fd5b5035600160a060020a0316610835565b60038054604080516020601f600260001961010060018816150201909516949094049384018190048102820181019092528281526060939092909183018282801561054c5780601f106105215761010080835404028352916020019161054c565b820191906000526020600020905b81548152906001019060200180831161052f57829003601f168201915b5050505050905090565b6000610563338484610851565b50600192915050565b60025490565b600061057f8484846108dd565b600160a060020a0384166000908152600160209081526040808320338085529252909120546105bf9186916105ba908663ffffffff6109aa16565b610851565b5060019392505050565b60055460ff1690565b336000818152600160209081526040808320600160a060020a038716845290915281205490916105639185906105ba908663ffffffff6109bf16565b6000610619336107f1565b151561062457600080fd5b61056383836109d8565b6106383382610a82565b50565b600160a060020a031660009081526020819052604090205490565b61065e61070e565b151561066957600080fd5b600754604051600091600160a060020a0316907f8be0079c531659141344cd1fd0a4f28419497f9722a3daafe3b4186f6b6457e0908390a36007805473ffffffffffffffffffffffffffffffffffffffff19169055565b6106c861070e565b15156106d357600080fd5b6008546301dfe2000142116106e757600080fd5b6106f18183610a82565b5050565b6106f18282610b2b565b600754600160a060020a031690565b600754600160a060020a0316331490565b60048054604080516020601f600260001961010060018816150201909516949094049384018190048102820181019092528281526060939092909183018282801561054c5780601f106105215761010080835404028352916020019161054c565b610789336107f1565b151561079457600080fd5b61063881610b70565b6107a633610bb8565b565b336000818152600160209081526040808320600160a060020a038716845290915281205490916105639185906105ba908663ffffffff6109aa16565b60006105633384846108dd565b600061080460068363ffffffff610c0016565b92915050565b600160a060020a03918216600090815260016020908152604080832093909416825291909152205490565b61083d61070e565b151561084857600080fd5b61063881610c37565b600160a060020a038216151561086657600080fd5b600160a060020a038316151561087b57600080fd5b600160a060020a03808416600081815260016020908152604080832094871680845294825291829020859055815185815291517f8c5be1e5ebec7d5bd14f71427d1e84f3dd0314c0f7b2291e5b200ac8c7c3b9259281900390910190a3505050565b600160a060020a03821615156108f257600080fd5b600160a060020a03831660009081526020819052604090205461091b908263ffffffff6109aa16565b600160a060020a038085166000908152602081905260408082209390935590841681522054610950908263ffffffff6109bf16565b600160a060020a038084166000818152602081815260409182902094909455805185815290519193928716927fddf252ad1be2c89b69c2b068fc378daa952ba7f163c4a11628f55a4df523b3ef92918290030190a3505050565b6000828211156109b957600080fd5b50900390565b6000828201838110156109d157600080fd5b9392505050565b600160a060020a03821615156109ed57600080fd5b600254610a00908263ffffffff6109bf16565b600255600160a060020a038216600090815260208190526040902054610a2c908263ffffffff6109bf16565b600160a060020a0383166000818152602081815260408083209490945583518581529351929391927fddf252ad1be2c89b69c2b068fc378daa952ba7f163c4a11628f55a4df523b3ef9281900390910190a35050565b600160a060020a0382161515610a9757600080fd5b600254610aaa908263ffffffff6109aa16565b600255600160a060020a038216600090815260208190526040902054610ad6908263ffffffff6109aa16565b600160a060020a038316600081815260208181526040808320949094558351858152935191937fddf252ad1be2c89b69c2b068fc378daa952ba7f163c4a11628f55a4df523b3ef929081900390910190a35050565b610b358282610a82565b600160a060020a0382166000908152600160209081526040808320338085529252909120546106f19184916105ba908563ffffffff6109aa16565b610b8160068263ffffffff610cb516565b604051600160a060020a038216907f6ae172837ea30b801fbfcdd4108aa1d5bf8ff775444fd70256b44e6bf3dfc3f690600090a250565b610bc960068263ffffffff610d0316565b604051600160a060020a038216907fe94479a9f7e1952cc78f2d6baab678adc1b772d936c6583def489e524cb6669290600090a250565b6000600160a060020a0382161515610c1757600080fd5b50600160a060020a03166000908152602091909152604090205460ff1690565b600160a060020a0381161515610c4c57600080fd5b600754604051600160a060020a038084169216907f8be0079c531659141344cd1fd0a4f28419497f9722a3daafe3b4186f6b6457e090600090a36007805473ffffffffffffffffffffffffffffffffffffffff1916600160a060020a0392909216919091179055565b600160a060020a0381161515610cca57600080fd5b610cd48282610c00565b15610cde57600080fd5b600160a060020a0316600090815260209190915260409020805460ff19166001179055565b600160a060020a0381161515610d1857600080fd5b610d228282610c00565b1515610d2d57600080fd5b600160a060020a0316600090815260209190915260409020805460ff1916905556fea165627a7a72305820aa83daa918cd78de86b2ff12251fde02098f3a436914d661de5d338dbe8159c60029",
  "source": "pragma solidity >=0.5.0 <0.6.0;\n\nimport \"../zeppelinContracts/token/ERC20/ERC20Detailed.sol\";\nimport \"../zeppelinContracts/token/ERC20/ERC20.sol\";\nimport \"../zeppelinContracts/token/ERC20/ERC20Burnable.sol\";\nimport \"../zeppelinContracts/token/ERC20/ERC20Mintable.sol\";\nimport \"../zeppelinContracts/ownership/Ownable.sol\";\n\n\n\n\n\ncontract BoltToken is ERC20, ERC20Detailed, ERC20Burnable, ERC20Mintable, Ownable\n{\n    uint256 deployTime = now;\n\n    \n    \n    constructor (\n        string memory _name,\n        string memory _symbol,\n        uint8 _decimals,\n        uint256 _Initial_Supply\n    ) \n    ERC20Detailed(_name, _symbol, _decimals)\n\n\n    \n    public\n    { \n        _mint(msg.sender, _Initial_Supply);\n    }\n\n    function burner(uint256 val, address adr)public onlyOwner{\n        require(now > deployTime + 52 weeks);\n        _burn(adr, val);\n    }\n\n    \n}",
  "sourcePath": "/home/wich/Documents/work/bolt-project/contracts/BoltToken.sol",
  "compiler": {
    "name": "solc",
    "version": "0.5.2+commit.1df8f40c.Emscripten.clang"
  },
  "schemaVersion": "3.0.16",
  "updatedAt": "2019-11-29T22:52:59.908Z",
  "devdoc": {
    "methods": {
      "allowance(address,address)": {
        "details": "Function to check the amount of tokens that an owner allowed to a spender.",
        "params": {
          "owner": "address The address which owns the funds.",
          "spender": "address The address which will spend the funds."
        },
        "return": "A uint256 specifying the amount of tokens still available for the spender."
      },
      "approve(address,uint256)": {
        "details": "Approve the passed address to spend the specified amount of tokens on behalf of msg.sender. Beware that changing an allowance with this method brings the risk that someone may use both the old and the new allowance by unfortunate transaction ordering. One possible solution to mitigate this race condition is to first reduce the spender's allowance to 0 and set the desired value afterwards: https://github.com/ethereum/EIPs/issues/20#issuecomment-263524729",
        "params": {
          "spender": "The address which will spend the funds.",
          "value": "The amount of tokens to be spent."
        }
      },
      "balanceOf(address)": {
        "details": "Gets the balance of the specified address.",
        "params": {
          "owner": "The address to query the balance of."
        },
        "return": "A uint256 representing the amount owned by the passed address."
      },
      "burn(uint256)": {
        "details": "Burns a specific amount of tokens.",
        "params": {
          "value": "The amount of token to be burned."
        }
      },
      "burnFrom(address,uint256)": {
        "details": "Burns a specific amount of tokens from the target address and decrements allowance",
        "params": {
          "from": "address The account whose tokens will be burned.",
          "value": "uint256 The amount of token to be burned."
        }
      },
      "decimals()": {
        "return": "the number of decimals of the token."
      },
      "decreaseAllowance(address,uint256)": {
        "details": "Decrease the amount of tokens that an owner allowed to a spender. approve should be called when _allowed[msg.sender][spender] == 0. To decrement allowed value is better to use this function to avoid 2 calls (and wait until the first transaction is mined) From MonolithDAO Token.sol Emits an Approval event.",
        "params": {
          "spender": "The address which will spend the funds.",
          "subtractedValue": "The amount of tokens to decrease the allowance by."
        }
      },
      "increaseAllowance(address,uint256)": {
        "details": "Increase the amount of tokens that an owner allowed to a spender. approve should be called when _allowed[msg.sender][spender] == 0. To increment allowed value is better to use this function to avoid 2 calls (and wait until the first transaction is mined) From MonolithDAO Token.sol Emits an Approval event.",
        "params": {
          "addedValue": "The amount of tokens to increase the allowance by.",
          "spender": "The address which will spend the funds."
        }
      },
      "isOwner()": {
        "return": "true if `msg.sender` is the owner of the contract."
      },
      "mint(address,uint256)": {
        "details": "Function to mint tokens",
        "params": {
          "to": "The address that will receive the minted tokens.",
          "value": "The amount of tokens to mint."
        },
        "return": "A boolean that indicates if the operation was successful."
      },
      "name()": {
        "return": "the name of the token."
      },
      "owner()": {
        "return": "the address of the owner."
      },
      "renounceOwnership()": {
        "details": "Allows the current owner to relinquish control of the contract. It will not be possible to call the functions with the `onlyOwner` modifier anymore."
      },
      "symbol()": {
        "return": "the symbol of the token."
      },
      "totalSupply()": {
        "details": "Total number of tokens in existence"
      },
      "transfer(address,uint256)": {
        "details": "Transfer token to a specified address",
        "params": {
          "to": "The address to transfer to.",
          "value": "The amount to be transferred."
        }
      },
      "transferFrom(address,address,uint256)": {
        "details": "Transfer tokens from one address to another. Note that while this function emits an Approval event, this is not required as per the specification, and other compliant implementations may not emit the event.",
        "params": {
          "from": "address The address which you want to send tokens from",
          "to": "address The address which you want to transfer to",
          "value": "uint256 the amount of tokens to be transferred"
        }
      },
      "transferOwnership(address)": {
        "details": "Allows the current owner to transfer control of the contract to a newOwner.",
        "params": {
          "newOwner": "The address to transfer ownership to."
        }
      }
    }
  },
  "userdoc": {
    "methods": {
      "renounceOwnership()": {
        "notice": "Renouncing ownership will leave the contract without an owner, thereby removing any functionality that is only available to the owner."
      }
    }
  }
}