{
  "contractName": "BoltTokenCrowdsale",
  "abi": [
    {
      "constant": true,
      "inputs": [],
      "name": "hasClosed",
      "outputs": [
        {
          "name": "",
          "type": "bool"
        }
      ],
      "payable": false,
      "stateMutability": "view",
      "type": "function"
    },
    {
      "constant": true,
      "inputs": [],
      "name": "rate",
      "outputs": [
        {
          "name": "",
          "type": "uint256"
        }
      ],
      "payable": false,
      "stateMutability": "view",
      "type": "function"
    },
    {
      "constant": true,
      "inputs": [],
      "name": "cap",
      "outputs": [
        {
          "name": "",
          "type": "uint256"
        }
      ],
      "payable": false,
      "stateMutability": "view",
      "type": "function"
    },
    {
      "constant": true,
      "inputs": [],
      "name": "weiRaised",
      "outputs": [
        {
          "name": "",
          "type": "uint256"
        }
      ],
      "payable": false,
      "stateMutability": "view",
      "type": "function"
    },
    {
      "constant": true,
      "inputs": [],
      "name": "isOpen",
      "outputs": [
        {
          "name": "",
          "type": "bool"
        }
      ],
      "payable": false,
      "stateMutability": "view",
      "type": "function"
    },
    {
      "constant": true,
      "inputs": [],
      "name": "closingTime",
      "outputs": [
        {
          "name": "",
          "type": "uint256"
        }
      ],
      "payable": false,
      "stateMutability": "view",
      "type": "function"
    },
    {
      "constant": false,
      "inputs": [],
      "name": "finalize",
      "outputs": [],
      "payable": false,
      "stateMutability": "nonpayable",
      "type": "function"
    },
    {
      "constant": true,
      "inputs": [],
      "name": "capReached",
      "outputs": [
        {
          "name": "",
          "type": "bool"
        }
      ],
      "payable": false,
      "stateMutability": "view",
      "type": "function"
    },
    {
      "constant": true,
      "inputs": [],
      "name": "wallet",
      "outputs": [
        {
          "name": "",
          "type": "address"
        }
      ],
      "payable": false,
      "stateMutability": "view",
      "type": "function"
    },
    {
      "constant": false,
      "inputs": [],
      "name": "renounceOwnership",
      "outputs": [],
      "payable": false,
      "stateMutability": "nonpayable",
      "type": "function"
    },
    {
      "constant": true,
      "inputs": [],
      "name": "owner",
      "outputs": [
        {
          "name": "",
          "type": "address"
        }
      ],
      "payable": false,
      "stateMutability": "view",
      "type": "function"
    },
    {
      "constant": true,
      "inputs": [],
      "name": "isOwner",
      "outputs": [
        {
          "name": "",
          "type": "bool"
        }
      ],
      "payable": false,
      "stateMutability": "view",
      "type": "function"
    },
    {
      "constant": true,
      "inputs": [],
      "name": "finalized",
      "outputs": [
        {
          "name": "",
          "type": "bool"
        }
      ],
      "payable": false,
      "stateMutability": "view",
      "type": "function"
    },
    {
      "constant": true,
      "inputs": [],
      "name": "openingTime",
      "outputs": [
        {
          "name": "",
          "type": "uint256"
        }
      ],
      "payable": false,
      "stateMutability": "view",
      "type": "function"
    },
    {
      "constant": false,
      "inputs": [
        {
          "name": "beneficiary",
          "type": "address"
        }
      ],
      "name": "buyTokens",
      "outputs": [],
      "payable": true,
      "stateMutability": "payable",
      "type": "function"
    },
    {
      "constant": false,
      "inputs": [
        {
          "name": "newOwner",
          "type": "address"
        }
      ],
      "name": "transferOwnership",
      "outputs": [],
      "payable": false,
      "stateMutability": "nonpayable",
      "type": "function"
    },
    {
      "constant": true,
      "inputs": [],
      "name": "token",
      "outputs": [
        {
          "name": "",
          "type": "address"
        }
      ],
      "payable": false,
      "stateMutability": "view",
      "type": "function"
    },
    {
      "inputs": [
        {
          "name": "_wallet",
          "type": "address"
        },
        {
          "name": "_token",
          "type": "address"
        },
        {
          "name": "_cap",
          "type": "uint256"
        },
        {
          "name": "_openingTime",
          "type": "uint256"
        },
        {
          "name": "_closingTime",
          "type": "uint256"
        }
      ],
      "payable": false,
      "stateMutability": "nonpayable",
      "type": "constructor"
    },
    {
      "payable": true,
      "stateMutability": "payable",
      "type": "fallback"
    },
    {
      "anonymous": false,
      "inputs": [
        {
          "indexed": true,
          "name": "previousOwner",
          "type": "address"
        },
        {
          "indexed": true,
          "name": "newOwner",
          "type": "address"
        }
      ],
      "name": "OwnershipTransferred",
      "type": "event"
    },
    {
      "anonymous": false,
      "inputs": [],
      "name": "CrowdsaleFinalized",
      "type": "event"
    },
    {
      "anonymous": false,
      "inputs": [
        {
          "indexed": false,
          "name": "prevClosingTime",
          "type": "uint256"
        },
        {
          "indexed": false,
          "name": "newClosingTime",
          "type": "uint256"
        }
      ],
      "name": "TimedCrowdsaleExtended",
      "type": "event"
    },
    {
      "anonymous": false,
      "inputs": [
        {
          "indexed": true,
          "name": "purchaser",
          "type": "address"
        },
        {
          "indexed": true,
          "name": "beneficiary",
          "type": "address"
        },
        {
          "indexed": false,
          "name": "value",
          "type": "uint256"
        },
        {
          "indexed": false,
          "name": "amount",
          "type": "uint256"
        }
      ],
      "name": "TokensPurchased",
      "type": "event"
    },
    {
      "constant": false,
      "inputs": [],
      "name": "changeToStageTwo",
      "outputs": [],
      "payable": false,
      "stateMutability": "nonpayable",
      "type": "function"
    },
    {
      "constant": false,
      "inputs": [],
      "name": "changeToStageThree",
      "outputs": [],
      "payable": false,
      "stateMutability": "nonpayable",
      "type": "function"
    },
    {
      "constant": false,
      "inputs": [],
      "name": "changeToStageFour",
      "outputs": [],
      "payable": false,
      "stateMutability": "nonpayable",
      "type": "function"
    },
    {
      "constant": false,
      "inputs": [],
      "name": "changeToStageFive",
      "outputs": [],
      "payable": false,
      "stateMutability": "nonpayable",
      "type": "function"
    }
  ],
  "bytecode": "0x60806040524260095534801561001457600080fd5b5060405160a0806110a3833981018060405260a081101561003457600080fd5b5080516020820151604083015160608401516080909401516001600055929391929091908181848787600160a060020a038216151561007257600080fd5b600160a060020a038116151561008757600080fd5b60028054600160a060020a03938416600160a060020a03199182161790915560018054929093169116179055600081116100c057600080fd5b600555428210156100d057600080fd5b8181116100dc57600080fd5b60069190915560075560088054600160a860020a0319166101003381029190911791829055604051600160a060020a039190920416906000907f8be0079c531659141344cd1fd0a4f28419497f9722a3daafe3b4186f6b6457e0908290a350506203f7a0600355505050610f4e806101556000396000f3fe608060405260043610610147576000357c0100000000000000000000000000000000000000000000000000000000900480635e2efd47116100c8578063b3f05b971161008c578063b3f05b97146102cf578063b7a8807c146102e4578063e27c9890146102f9578063ec8ac4d81461030e578063f2fde38b14610334578063fc0c546a1461036757610147565b80635e2efd47146102665780636096a2bd1461027b578063715018a6146102905780638da5cb5b146102a55780638f32d59b146102ba57610147565b806347535d7b1161010f57806347535d7b146101e15780634b6753bc146101f65780634bb278f31461020b5780634f93594514610220578063521eb2731461023557610147565b80631515bc2b1461015257806327ee7ad61461017b5780632c4e722e14610190578063355274ea146101b75780634042b66f146101cc575b6101503361037c565b005b34801561015e57600080fd5b50610167610438565b604080519115158252519081900360200190f35b34801561018757600080fd5b50610150610440565b34801561019c57600080fd5b506101a56104cf565b60408051918252519081900360200190f35b3480156101c357600080fd5b506101a56104d5565b3480156101d857600080fd5b506101a56104db565b3480156101ed57600080fd5b506101676104e1565b34801561020257600080fd5b506101a56104fc565b34801561021757600080fd5b50610150610502565b34801561022c57600080fd5b50610167610565565b34801561024157600080fd5b5061024a610579565b60408051600160a060020a039092168252519081900360200190f35b34801561027257600080fd5b50610150610588565b34801561028757600080fd5b50610150610617565b34801561029c57600080fd5b506101506106a7565b3480156102b157600080fd5b5061024a610717565b3480156102c657600080fd5b5061016761072b565b3480156102db57600080fd5b50610167610741565b3480156102f057600080fd5b506101a561074a565b34801561030557600080fd5b50610150610750565b6101506004803603602081101561032457600080fd5b5035600160a060020a031661037c565b34801561034057600080fd5b506101506004803603602081101561035757600080fd5b5035600160a060020a03166107e1565b34801561037357600080fd5b5061024a610800565b600080546001019081905534610392838261080f565b600061039d82610b2d565b6004549091506103b3908363ffffffff610b4a16565b6004556103c08482610b63565b60408051838152602081018390528151600160a060020a0387169233927f6faf93231a456e552dbc9961f58d9713ee4f2e69d15f1975b050ef0911053a7b929081900390910190a36104128483610434565b61041a610b6d565b6104248483610434565b5050600054811461043457600080fd5b5050565b600754421190565b61044861072b565b151561045357600080fd5b6009546293a800014210158015610470575060095462dd7c000142105b15156104c6576040805160e560020a62461bcd02815260206004820152601b60248201527f7765206469646e74207265616368203136207765656b73207965740000000000604482015290519081900360640190fd5b62035b60600355565b60035490565b60055490565b60045490565b600060065442101580156104f757506007544211155b905090565b60075490565b60085460ff161561051257600080fd5b61051a610438565b151561052557600080fd5b6008805460ff1916600117905561053a610ba6565b6040517f9270cc390c096600a1c17c44345a1ba689fafd99d97487b10cfccf86cf73183690600090a1565b60006005546105726104db565b1015905090565b600254600160a060020a031690565b61059061072b565b151561059b57600080fd5b6009546249d4000142101580156105b857506009546293a8000142105b151561060e576040805160e560020a62461bcd02815260206004820152601a60248201527f7765206469646e742072656163682038207765656b7320796574000000000000604482015290519081900360640190fd5b6203a980600355565b61061f61072b565b151561062a57600080fd5b60095462dd7c00014210158015610648575060095463012750000142105b151561069e576040805160e560020a62461bcd02815260206004820152601b60248201527f7765206469646e74207265616368203234207765656b73207965740000000000604482015290519081900360640190fd5b62033450600355565b6106af61072b565b15156106ba57600080fd5b6008546040516000916101009004600160a060020a0316907f8be0079c531659141344cd1fd0a4f28419497f9722a3daafe3b4186f6b6457e0908390a36008805474ffffffffffffffffffffffffffffffffffffffff0019169055565b6008546101009004600160a060020a031690565b6008546101009004600160a060020a0316331490565b60085460ff1690565b60065490565b61075861072b565b151561076357600080fd5b600954630127500001421015801561078257506009546301dfe2000142105b15156107d8576040805160e560020a62461bcd02815260206004820152601b60248201527f7765206469646e74207265616368203332207765656b73207965740000000000604482015290519081900360640190fd5b62030d40600355565b6107e961072b565b15156107f457600080fd5b6107fd81610ba8565b50565b600154600160a060020a031690565b6108198282610c31565b600354674563918244f4000090671bc16d674ec8000090670de0b6b3a76400009081906703782dace9d9000090680d8d726b7177a80000906203f7a0141561089d578587101561089d5760405160e560020a62461bcd028152600401808060200182810382526029815260200180610ed16029913960400191505060405180910390fd5b808711156108df5760405160e560020a62461bcd02815260040180806020018281038252602b815260200180610e7a602b913960400191505060405180910390fd5b6003546203a980141561092e578487101561092e5760405160e560020a62461bcd028152600401808060200182810382526029815260200180610efa6029913960400191505060405180910390fd5b808711156109705760405160e560020a62461bcd02815260040180806020018281038252602b815260200180610e7a602b913960400191505060405180910390fd5b60035462035b6014156109bf57838710156109bf5760405160e560020a62461bcd02815260040180806020018281038252602c815260200180610ea5602c913960400191505060405180910390fd5b80871115610a015760405160e560020a62461bcd02815260040180806020018281038252602b815260200180610e7a602b913960400191505060405180910390fd5b600354620334501415610a505782871015610a505760405160e560020a62461bcd02815260040180806020018281038252602c815260200180610ea5602c913960400191505060405180910390fd5b80871115610a925760405160e560020a62461bcd02815260040180806020018281038252602b815260200180610e7a602b913960400191505060405180910390fd5b60035462030d401415610ae15781871015610ae15760405160e560020a62461bcd02815260040180806020018281038252602c815260200180610ea5602c913960400191505060405180910390fd5b80871115610b235760405160e560020a62461bcd02815260040180806020018281038252602b815260200180610e7a602b913960400191505060405180910390fd5b5050505050505050565b6000610b4460035483610c4e90919063ffffffff16565b92915050565b600082820183811015610b5c57600080fd5b9392505050565b6104348282610c79565b600254604051600160a060020a03909116903480156108fc02916000818181858888f193505050501580156107fd573d6000803e3d6000fd5b565b600160a060020a0381161515610bbd57600080fd5b600854604051600160a060020a0380841692610100900416907f8be0079c531659141344cd1fd0a4f28419497f9722a3daafe3b4186f6b6457e090600090a360088054600160a060020a039092166101000274ffffffffffffffffffffffffffffffffffffffff0019909216919091179055565b610c396104e1565b1515610c4457600080fd5b6104348282610c96565b6000821515610c5f57506000610b44565b828202828482811515610c6e57fe5b0414610b5c57600080fd5b60015461043490600160a060020a0316838363ffffffff610cc616565b610ca08282610d4b565b600554610cbb82610caf6104db565b9063ffffffff610b4a16565b111561043457600080fd5b60408051600160a060020a038416602482015260448082018490528251808303909101815260649091019091526020810180517bffffffffffffffffffffffffffffffffffffffffffffffffffffffff167fa9059cbb00000000000000000000000000000000000000000000000000000000179052610d46908490610d6c565b505050565b600160a060020a0382161515610d6057600080fd5b80151561043457600080fd5b610d7e82600160a060020a0316610e71565b1515610d8957600080fd5b6000606083600160a060020a0316836040518082805190602001908083835b60208310610dc75780518252601f199092019160209182019101610da8565b6001836020036101000a0380198251168184511680821785525050505050509050019150506000604051808303816000865af19150503d8060008114610e29576040519150601f19603f3d011682016040523d82523d6000602084013e610e2e565b606091505b5091509150811515610e3f57600080fd5b600081511115610e6b57808060200190516020811015610e5e57600080fd5b50511515610e6b57600080fd5b50505050565b6000903b119056fe696e2074686973207374616765206d6178696d756d20707572636861736520697320323530206574686572696e2074686973207374616765206d696e696d756d20707572636861736520697320312e3637206574686572696e2074686973207374616765206d696e696d756d2070757263686173652069732035206574686572696e2074686973207374616765206d696e696d756d2070757263686173652069732032206574686572a165627a7a723058201d7698220c3aa81e54c5d392a64743351171b450187b4d2ee6e8a108cd2a00830029",
  "source": "pragma solidity >=0.5.0 <0.6.0;\n\n\nimport \"./BoltToken.sol\";\n\nimport \"../zeppelinContracts/crowdsale/Crowdsale.sol\";\nimport \"../zeppelinContracts/crowdsale/validation/CappedCrowdsale.sol\";\nimport \"../zeppelinContracts/crowdsale/validation/TimedCrowdsale.sol\";\nimport \"../zeppelinContracts/crowdsale/distribution/FinalizableCrowdsale.sol\";\nimport \"../zeppelinContracts/ownership/Ownable.sol\";\n\n\n\n\n\n   \n  \n\n\ncontract BoltTokenCrowdsale is \n   Crowdsale\n , CappedCrowdsale\n , TimedCrowdsale\n , FinalizableCrowdsale\n , Ownable\n {\n   \n\n   \n   uint256 deployTime = now;\n\n\n    constructor (\n    address payable _wallet,\n    ERC20 _token,\n\n    uint256 _cap,\n\n    uint256 _openingTime,\n    uint256 _closingTime\n    ) \n\n    Crowdsale(_wallet, _token)\n    CappedCrowdsale(_cap)\n    TimedCrowdsale(_openingTime, _closingTime)\n\n    public \n    {\n       _rate = 260000;\n    }\n\n\n   \n    function changeToStageTwo()public onlyOwner{\n      require(block.timestamp >= deployTime + 8 weeks && block.timestamp < deployTime + 16 weeks,\"we didnt reach 8 weeks yet\");\n      _rate = 240000;\n    }\n    function changeToStageThree()public onlyOwner{\n      require(block.timestamp >= deployTime + 16 weeks && block.timestamp < deployTime + 24 weeks,\"we didnt reach 16 weeks yet\");\n      _rate = 220000;\n    }\n    function changeToStageFour()public onlyOwner{\n      require(block.timestamp >= deployTime + 24 weeks && block.timestamp < deployTime + 32 weeks,\"we didnt reach 24 weeks yet\");\n      _rate = 210000;\n    }\n    function changeToStageFive()public onlyOwner{\n      require(block.timestamp >= deployTime + 32 weeks && block.timestamp < deployTime + 52 weeks,\"we didnt reach 32 weeks yet\");\n      _rate = 200000;\n      //finalization here probabley\n    }\n\n    \n\n    // function _finalization()internal view {\n    //   require(now >= deployTime + 69 weeks);\n     \n    //   super._finalization();\n    // }\n\n\n\n    function _preValidatePurchase(address beneficiary, uint256 weiAmount) internal view {\n        super._preValidatePurchase(beneficiary, weiAmount);\n        uint256 minimumPurchaseInStageOne = 5000000000000000000;\n        uint256 minimumPurchaseInStageTwo = 2000000000000000000;\n        uint256 minimumPurchaseInStageThree = 1000000000000000000;\n        uint256 minimumPurchaseInStageFour = 1000000000000000000;\n        uint256 minimumPurchaseInStageFive = 250000000000000000;\n        uint256 maximumPurchase = 250000000000000000000;\n        if (_rate == 260000)\n          require(weiAmount >= minimumPurchaseInStageOne,\"in this stage minimum purchase is 5 ether\");\n          require(weiAmount <= maximumPurchase, \"in this stage maximum purchase is 250 ether\");\n        if (_rate == 240000)\n          require(weiAmount >= minimumPurchaseInStageTwo,\"in this stage minimum purchase is 2 ether\");\n          require(weiAmount <= maximumPurchase, \"in this stage maximum purchase is 250 ether\");\n        if (_rate == 220000)\n          require(weiAmount >= minimumPurchaseInStageThree,\"in this stage minimum purchase is 1.67 ether\");\n          require(weiAmount <= maximumPurchase, \"in this stage maximum purchase is 250 ether\");\n        if (_rate == 210000)\n          require(weiAmount >= minimumPurchaseInStageFour,\"in this stage minimum purchase is 1.67 ether\");\n          require(weiAmount <= maximumPurchase, \"in this stage maximum purchase is 250 ether\");\n        if (_rate == 200000)\n          require(weiAmount >= minimumPurchaseInStageFive,\"in this stage minimum purchase is 1.67 ether\");\n          require(weiAmount <= maximumPurchase, \"in this stage maximum purchase is 250 ether\");\n    }\n}",
  "sourcePath": "/home/wich/Documents/work/bolt-project/contracts/BoltTokenCrowdsale.sol",
  "compiler": {
    "name": "solc",
    "version": "0.5.2+commit.1df8f40c.Emscripten.clang"
  },
  "schemaVersion": "3.0.16",
  "updatedAt": "2019-11-29T22:52:59.926Z",
  "devdoc": {
    "methods": {
      "buyTokens(address)": {
        "details": "low level token purchase ***DO NOT OVERRIDE*** This function has a non-reentrancy guard, so it shouldn't be called by another `nonReentrant` function.",
        "params": {
          "beneficiary": "Recipient of the token purchase"
        }
      },
      "cap()": {
        "return": "the cap of the crowdsale."
      },
      "capReached()": {
        "details": "Checks whether the cap has been reached.",
        "return": "Whether the cap was reached"
      },
      "closingTime()": {
        "return": "the crowdsale closing time."
      },
      "finalize()": {
        "details": "Must be called after crowdsale ends, to do some extra finalization work. Calls the contract's finalization function."
      },
      "finalized()": {
        "return": "true if the crowdsale is finalized, false otherwise."
      },
      "hasClosed()": {
        "details": "Checks whether the period in which the crowdsale is open has already elapsed.",
        "return": "Whether crowdsale period has elapsed"
      },
      "isOpen()": {
        "return": "true if the crowdsale is open, false otherwise."
      },
      "isOwner()": {
        "return": "true if `msg.sender` is the owner of the contract."
      },
      "openingTime()": {
        "return": "the crowdsale opening time."
      },
      "owner()": {
        "return": "the address of the owner."
      },
      "rate()": {
        "return": "the number of token units a buyer gets per wei."
      },
      "renounceOwnership()": {
        "details": "Allows the current owner to relinquish control of the contract. It will not be possible to call the functions with the `onlyOwner` modifier anymore."
      },
      "token()": {
        "return": "the token being sold."
      },
      "transferOwnership(address)": {
        "details": "Allows the current owner to transfer control of the contract to a newOwner.",
        "params": {
          "newOwner": "The address to transfer ownership to."
        }
      },
      "wallet()": {
        "return": "the address where funds are collected."
      },
      "weiRaised()": {
        "return": "the amount of wei raised."
      }
    }
  },
  "userdoc": {
    "methods": {
      "renounceOwnership()": {
        "notice": "Renouncing ownership will leave the contract without an owner, thereby removing any functionality that is only available to the owner."
      }
    }
  }
}