{
  "contractName": "TokenTimelock",
  "abi": [
    {
      "inputs": [
        {
          "name": "token",
          "type": "address"
        },
        {
          "name": "beneficiary",
          "type": "address"
        },
        {
          "name": "releaseTime",
          "type": "uint256"
        }
      ],
      "payable": false,
      "stateMutability": "nonpayable",
      "type": "constructor"
    },
    {
      "constant": true,
      "inputs": [],
      "name": "token",
      "outputs": [
        {
          "name": "",
          "type": "address"
        }
      ],
      "payable": false,
      "stateMutability": "view",
      "type": "function"
    },
    {
      "constant": true,
      "inputs": [],
      "name": "beneficiary",
      "outputs": [
        {
          "name": "",
          "type": "address"
        }
      ],
      "payable": false,
      "stateMutability": "view",
      "type": "function"
    },
    {
      "constant": true,
      "inputs": [],
      "name": "releaseTime",
      "outputs": [
        {
          "name": "",
          "type": "uint256"
        }
      ],
      "payable": false,
      "stateMutability": "view",
      "type": "function"
    },
    {
      "constant": false,
      "inputs": [],
      "name": "release",
      "outputs": [],
      "payable": false,
      "stateMutability": "nonpayable",
      "type": "function"
    }
  ],
  "bytecode": "0x608060405234801561001057600080fd5b506040516060806104dd8339810180604052606081101561003057600080fd5b508051602082015160409092015190919042811161004d57600080fd5b60008054600160a060020a03948516600160a060020a031991821617909155600180549390941692169190911790915560025561044e8061008f6000396000f3fe608060405234801561001057600080fd5b5060043610610068577c0100000000000000000000000000000000000000000000000000000000600035046338af3eed811461006d57806386d1a69f14610091578063b91d40011461009b578063fc0c546a146100b5575b600080fd5b6100756100bd565b60408051600160a060020a039092168252519081900360200190f35b6100996100cc565b005b6100a361024f565b60408051918252519081900360200190f35b610075610255565b600154600160a060020a031690565b60025442101561013d57604080517f08c379a000000000000000000000000000000000000000000000000000000000815260206004820152601e60248201527f6974277320746f6f20736f6f6e20746f2072656c6561736520636f696e730000604482015290519081900360640190fd5b60008054604080517f70a082310000000000000000000000000000000000000000000000000000000081523060048201529051600160a060020a03909216916370a0823191602480820192602092909190829003018186803b1580156101a257600080fd5b505afa1580156101b6573d6000803e3d6000fd5b505050506040513d60208110156101cc57600080fd5b5051905060008111610229576040517f08c379a000000000000000000000000000000000000000000000000000000000815260040180806020018281038252602c8152602001806103f7602c913960400191505060405180910390fd5b60015460005461024c91600160a060020a0391821691168363ffffffff61026416565b50565b60025490565b600054600160a060020a031690565b60408051600160a060020a038416602482015260448082018490528251808303909101815260649091019091526020810180517bffffffffffffffffffffffffffffffffffffffffffffffffffffffff167fa9059cbb000000000000000000000000000000000000000000000000000000001790526102e49084906102e9565b505050565b6102fb82600160a060020a03166103ee565b151561030657600080fd5b6000606083600160a060020a0316836040518082805190602001908083835b602083106103445780518252601f199092019160209182019101610325565b6001836020036101000a0380198251168184511680821785525050505050509050019150506000604051808303816000865af19150503d80600081146103a6576040519150601f19603f3d011682016040523d82523d6000602084013e6103ab565b606091505b50915091508115156103bc57600080fd5b6000815111156103e8578080602001905160208110156103db57600080fd5b505115156103e857600080fd5b50505050565b6000903b119056fe616d6f756e74206f662072656c656173652073686f756c6420626520686967686572207468616e207a69726fa165627a7a723058201a82b59b2cd50fb63b63e8fbde0cae1b0e38067c2af8a40fcdc29c35b5f18a1f0029",
  "source": "pragma solidity ^0.5.2;\n\nimport \"./SafeERC20.sol\";\n\n/**\n * @title TokenTimelock\n * @dev TokenTimelock is a token holder contract that will allow a\n * beneficiary to extract the tokens after a given release time\n */\ncontract TokenTimelock {\n    using SafeERC20 for IERC20;\n\n    // ERC20 basic token contract being held\n    IERC20 private _token;\n\n    // beneficiary of tokens after they are released\n    address private _beneficiary;\n\n    // timestamp when token release is enabled\n    uint256 private _releaseTime;\n\n    constructor (IERC20 token, address beneficiary, uint256 releaseTime) public {\n        // solhint-disable-next-line not-rely-on-time\n        require(releaseTime > block.timestamp);\n        _token = token;\n        _beneficiary = beneficiary;\n        _releaseTime = releaseTime;\n    }\n\n    /**\n     * @return the token being held.\n     */\n    function token() public view returns (IERC20) {\n        return _token;\n    }\n\n    /**\n     * @return the beneficiary of the tokens.\n     */\n    function beneficiary() public view returns (address) {\n        return _beneficiary;\n    }\n\n    /**\n     * @return the time when the tokens are released.\n     */\n    function releaseTime() public view returns (uint256) {\n        return _releaseTime;\n    }\n\n    /**\n     * @notice Transfers tokens held by timelock to beneficiary.\n     */\n    function release() public {\n        // solhint-disable-next-line not-rely-on-time\n        require(block.timestamp >= _releaseTime, \"it's too soon to release coins\");\n\n        uint256 amount = _token.balanceOf(address(this));\n        require(amount > 0,\"amount of release should be higher than ziro\");\n\n        _token.safeTransfer(_beneficiary, amount);\n    }\n}\n",
  "sourcePath": "/home/wich/Documents/work/bolt-project/zeppelinContracts/token/ERC20/TokenTimelock.sol",
  "compiler": {
    "name": "solc",
    "version": "0.5.2+commit.1df8f40c.Emscripten.clang"
  },
  "schemaVersion": "3.0.16",
  "updatedAt": "2019-11-29T22:46:51.691Z",
  "devdoc": {
    "details": "TokenTimelock is a token holder contract that will allow a beneficiary to extract the tokens after a given release time",
    "methods": {
      "beneficiary()": {
        "return": "the beneficiary of the tokens."
      },
      "releaseTime()": {
        "return": "the time when the tokens are released."
      },
      "token()": {
        "return": "the token being held."
      }
    },
    "title": "TokenTimelock"
  },
  "userdoc": {
    "methods": {
      "release()": {
        "notice": "Transfers tokens held by timelock to beneficiary."
      }
    }
  }
}